:020000040000FA
:100000000C9435000C9439030C9426030C945D0079
:100010000C945D000C945D000C945D000C94F60251
:100020000C945D000C945D000C945D000C945D00DC
:100030000C945D000C945D000C945D000C945D00CC
:100040000C9454020C945D000C94C4020C949E0217
:100050000C945D000C945D000C945D000C945D00AC
:100060000C945D000C945D00F30411241FBECFEFCF
:10007000D8E0DEBFCDBF21E0AAE4B1E001C01D920F
:10008000A83FB207E1F711E0A0E0B1E0ECE0FFE04B
:1000900002C005900D92AA34B107D9F710E0C5E36C
:1000A000D0E004C02197FE010E948C05C433D10723
:1000B000C9F70E944C030C9484070C940000AF9283
:1000C000BF92CF92DF92EF92FF920F931F93CF9345
:1000D000DF936C017B018B01040F151FEB015E01A7
:1000E000AE18BF08C017D10759F06991D601ED913C
:1000F000FC910190F081E02DC6010995892B79F7DB
:10010000C501DF91CF911F910F91FF90EF90DF908C
:10011000CF90BF90AF900895CF93DF93FC014481BF
:1001200055816081718187E591E00E945F00EC015B
:1001300042E050E06AE171E087E591E00E945F00F3
:100140008C0F9D1FDF91CF910895FC01538D448D3D
:10015000252F30E0842F90E0821B930B541710F072
:10016000CF96089501970895FC01918D828D98177F
:1001700061F0A28DAE0FBF2FB11D5D968C91928D57
:100180009F5F9F73928F90E008958FEF9FEF089588
:10019000FC01918D828D981731F0828DE80FF11D51
:1001A000858D90E008958FEF9FEF0895FC01918D6C
:1001B000228D892F90E0805C9F4F821B91098F7365
:1001C0009927089587E591E00E94D60021E0892BC8
:1001D00009F420E0822F089580E090E0892B29F037
:1001E0000E94E20081110C9400000895FC01A48D8E
:1001F000A80FB92FB11DA35ABF4F2C91848D90E049
:1002000001968F739927848FA689B7892C93A0892B
:10021000B1898C91837080648C93938D848D9813B5
:1002200006C00288F389E02D80818F7D8083089548
:10023000EF92FF920F931F93CF93DF93EC0181E036
:10024000888F9B8D8C8D98131AC0E889F9898081DD
:1002500085FF15C09FB7F894EE89FF896083E88910
:10026000F98980818370806480839FBF81E090E002
:10027000DF91CF911F910F91FF90EF900895F62E8F
:100280000B8D10E00F5F1F4F0F731127E02E8C8D29
:100290008E110CC00FB607FCFACFE889F98980816E
:1002A00085FFF5CFCE010E94F600F1CFEB8DEC0F6C
:1002B000FD2FF11DE35AFF4FF0829FB7F8940B8F8B
:1002C000EA89FB8980818062CFCFCF93DF93EC01F5
:1002D000888D8823B9F0AA89BB89E889F9898C912E
:1002E00085FD03C0808186FD0DC00FB607FCF7CFEA
:1002F0008C9185FFF2CF808185FFEDCFCE010E94EA
:10030000F600E9CFDF91CF910895FC0180819181C2
:10031000009711F00C942E0608950F931F93CF931E
:10032000DF93EC0188819981009759F02A813B8104
:100330002617370730F081E0DF91CF911F910F91A1
:1003400008958B016F5F7F4F0E94B706009759F0A9
:10035000998388831B830A832C813D81232B59F742
:10036000FC011082E8CF80E0E7CFEF92FF920F937D
:100370001F93CF93DF93EC01FB01E080F180E11448
:10038000F10411F10481158101151105A9F08C8189
:100390009D81080F191FB801CE010E948D0188238D
:1003A00099F0288139818C819D81B701820F931F3B
:1003B0000E947D071D830C83CE01DF91CF911F9199
:1003C0000F91FF90EF90089588819981009711F027
:1003D0000E942E06198218821D821C821B821A829C
:1003E000EBCFEF92FF920F931F93CF93DF93EC012C
:1003F0007B018A01BA010E948D0128813981811116
:1004000014C02115310519F0C9010E942E06198268
:1004100018821D821C821B821A82CE01DF91CF912D
:100420001F910F91FF90EF9008951D830C83B701EA
:10043000C9010E947D07F1CFEF92FF920F931F93A6
:10044000CF93DF93CDB7DEB762970FB6F894DEBFD8
:100450000FBECDBF8C01CB01F80111821082138237
:100460001282158214824AE09E012F5F3F4F79016C
:10047000B9010E942005F70101900020E9F73197AA
:10048000AF014E195F09B701C8010E94F1016296E0
:100490000FB6F894DEBF0FBECDBFDF91CF911F9195
:1004A0000F91FF90EF9008951F920F920FB60F9249
:1004B00011242F933F938F939F93AF93BF9380917A
:1004C000530190915401A0915501B0915601309182
:1004D000520123E0230F2D3758F50196A11DB11DC0
:1004E000209352018093530190935401A09355019E
:1004F000B093560180914E0190914F01A09150010F
:10050000B09151010196A11DB11D80934E019093B0
:100510004F01A0935001B0935101BF91AF919F91B2
:100520008F913F912F910F900FBE0F901F901895B4
:1005300026E8230F0296A11DB11DD2CF1F920F9264
:100540000FB60F9211242F933F934F935F936F93A6
:100550007F938F939F93AF93BF93EF93FF9387E521
:1005600091E00E94F600FF91EF91BF91AF919F91B2
:100570008F917F916F915F914F913F912F910F904C
:100580000FBE0F901F9018951F920F920FB60F92EB
:1005900011242F938F939F93EF93FF93E091670123
:1005A000F09168018081E0916D01F0916E0182FD12
:1005B0001BC09081809170018F5F8F7320917101BA
:1005C000821741F0E0917001F0E0E95AFE4F958FFB
:1005D00080937001FF91EF919F918F912F910F90D8
:1005E0000FBE0F901F9018958081F4CF1F920F922D
:1005F0000FB60F9211242F938F939F938091000138
:10060000909101018F3E92404CF080914C0190916D
:100610004D01019690934D0180934C018091000112
:10062000909101018F3E92404CF480910001909195
:100630000101019690930101809300019F918F9198
:100640002F910F900FBE0F901F9018951F920F9231
:100650000FB60F9211248F93109201011092000196
:1006600081E080934A018F910F900FBE0F901F90F1
:1006700018951F920F920FB60F9211248F9310921C
:1006800001011092000181E080934B018F910F9046
:100690000FBE0F901F901895CF93DF93CDB7DEB7A5
:1006A0002C970FB6F894DEBF0FBECDBF789484B5FB
:1006B000826084BD84B5816084BD85B5826085BD5E
:1006C00085B5816085BD80916E00816080936E00EC
:1006D00010928100809181008260809381008091DE
:1006E000810081608093810080918000816080938F
:1006F00080008091B10084608093B1008091B0004F
:1007000081608093B00080917A00846080937A0049
:1007100080917A00826080937A0080917A00816073
:1007200080937A0080917A00806880937A0010929A
:10073000C10080EE8AB987E084B95A9A5B9A8FE04B
:100740008093690083E08DBB82E08093B00096E0E7
:100750009093B1008093700029EF2093B3007894B8
:10076000E0916701F09168018083E0916301F0916D
:1007700064011082E0916501F09166018FEC808345
:1007800010926F01E0916B01F0916C019083E09108
:100790006901F0916A01808180618083E091690143
:1007A000F0916A01808188608083E0916901F09115
:1007B0006A01808180688083E0916901F0916A011B
:1007C00080818F7D808300E010E081EDE82E87E05E
:1007D000F82E93E8C92E94E1D92E809100019091D2
:1007E00001018F3E92403CF160914C0170914D01AE
:1007F000CE0101960E941C0218861F821A86198655
:100800001C861B8646E150E06DE171E0CE01079643
:100810000E94F101BE016F5F7F4FCE0107960E94DB
:10082000B5010E948C00CE0107960E948501CE0181
:1008300001960E94850180910001909101018F3EF7
:1008400092403CF56091000170910101CE0101964A
:100850000E941C0218861F821A8619861C861B8617
:1008600044E150E064E371E0CE0107960E94F1019B
:10087000BE016F5F7F4FCE0107960E94B5010E94B7
:100880008C00CE0107960E948501CE0101960E9440
:10089000850180910001909101018F3E924054F0BA
:1008A00080914B01882331F0F0924D01E0924C0190
:1008B00010924B0180910001909101018F3E924076
:1008C00054F080914A01882331F0D0924D01C092BA
:1008D0004C0110924A0180914C0190914D01813D53
:1008E000974034F45D9A5E985F98289829982A9AE0
:1008F00080914C0190914D01813D97406CF0809129
:100900004C0190914D018F3B9A4034F45D985E9A72
:100910005F98289829982A9A80914C0190914D01CE
:100920008F3B9A406CF080914C0190914D01833B3C
:100930009C4034F45D985E985F9A289829982A9A8A
:1009400080914C0190914D01833B9C406CF08091D3
:100950004C0190914D018338944134F45D985E9838
:100960005F9A289A29982A9880914C0190914D017C
:10097000833894416CF080914C0190914D01813706
:10098000974134F45D985E985F9A2898299A2A983E
:1009900080914C0190914D01813797416CF080918D
:1009A0004C0190914D018536994134F45D985E98E3
:1009B0005F9A289829982A9A80914C0190914D012C
:1009C0008436994124F010924D0110924C0101158A
:1009D000110509F402CF0E94E200882309F4FDCE3C
:1009E0000E940000FACEE7E5F1E01382128288EE61
:1009F00093E0A0E0B0E084839583A683B7838CE086
:100A000091E09183808385EC90E09587848784ECE6
:100A100090E09787868780EC90E0918B808B81ECCB
:100A200090E0938B828B82EC90E0958B848B86ECAC
:100A300090E0978B868B118E128E138E148E0895F4
:100A4000BB274A3031F4992322F4BDE29095819579
:100A50009F4F0C942C05BB27FB015527AA27880F15
:100A6000991FAA1FA41710F0A41B83955051B9F722
:100A7000A05DAA3308F0A95DA193009779F7B111A1
:100A8000B1931192CB010C944505DC01FC01672F59
:100A900071917723E1F7329704C07C916D93708355
:100AA0006291AE17BF07C8F308952F923F924F92FD
:100AB0005F926F927F928F929F92AF92BF92CF92EE
:100AC000DF92EF92FF920F931F93CF93DF93CDB7F7
:100AD000DEB7CA1BDB0B0FB6F894DEBF0FBECDBF6F
:100AE00009942A88398848885F846E847D848C8440
:100AF0009B84AA84B984C884DF80EE80FD800C8149
:100B00001B81AA81B981CE0FD11D0FB6F894DEBF2B
:100B10000FBECDBFED010895EE0FFF1F0590F491BC
:100B2000E02D09940F931F93CF93DF9382309105AB
:100B300010F482E090E0E091F601F091F70130E0EE
:100B400020E0B0E0A0E0309799F42115310509F4D8
:100B50004AC0281B390B24303105D8F58A819B8186
:100B60006115710589F1FB0193838283FE0111C038
:100B7000408151810281138148175907E0F04817DD
:100B8000590799F4109761F012960C9312971396E7
:100B90001C933296CF01DF91CF911F910F91089551
:100BA0000093F6011093F701F4CF2115310551F0B0
:100BB0004217530738F0A901DB019A01BD01DF019B
:100BC000F801C1CFEF01F9CF9093F7018093F601BF
:100BD000CDCFFE01E20FF31F819391932250310993
:100BE00039832883D7CF2091F4013091F501232B4D
:100BF00041F420910401309105013093F5012093D7
:100C0000F40120910201309103012115310541F4D5
:100C10002DB73EB74091060150910701241B350BBB
:100C2000E091F401F091F501E217F307A0F42E1B17
:100C30003F0B2817390778F0AC014E5F5F4F241740
:100C4000350748F04E0F5F1F5093F5014093F401B4
:100C5000819391939FCFF0E0E0E09CCFCF93DF931F
:100C60000097E9F0FC01329713821282A091F601FD
:100C7000B091F701ED0130E020E01097A1F4208160
:100C80003181820F931F2091F4013091F5012817D3
:100C9000390709F061C0F093F501E093F401DF91A9
:100CA000CF910895EA01CE17DF07E8F54A815B810D
:100CB0009E0141155105B1F7E901FB83EA83499192
:100CC0005991C40FD51FEC17FD0761F48081918104
:100CD0000296840F951FE90199838883828193810D
:100CE0009B838A83F0E0E0E012968D919C911397AC
:100CF0000097B9F52D913C911197CD010296820F85
:100D0000931F2091F4013091F5012817390739F626
:100D1000309751F51092F7011092F601B093F5015A
:100D2000A093F401BCCFD383C28340815181840F4F
:100D3000951FC817D90761F44E5F5F4F888199816D
:100D4000480F591F518340838A819B8193838283FB
:100D50002115310509F0B0CFF093F701E093F601CA
:100D60009ECFFD01DC01C0CF13821282D7CFB0E04D
:100D7000A0E0EDEBF6E00C9457058C01009751F4E0
:100D8000CB010E9492058C01C801CDB7DEB7E0E12E
:100D90000C947305FC01E60FF71F9C0122503109EA
:100DA000E217F30708F49DC0D901CD91DC911197AA
:100DB000C617D70798F0C530D10530F3CE01049798
:100DC0008617970708F3C61BD70B2297C193D193B9
:100DD0006D937C93CF010E942E06D6CF5B01AC1A97
:100DE000BD0A4C018C0E9D1EA091F601B091F70139
:100DF000512C412CF12CE12C109731F58091F4010C
:100E00009091F5018815990509F05CC046165706C2
:100E100008F058C08091020190910301009741F4BD
:100E20008DB79EB74091060150910701841B950B29
:100E3000E817F90708F055C0F093F501E093F401C5
:100E4000F90171836083A0CF8D919C9111971296C7
:100E50006C90129713967C901397A815B90559F5C5
:100E60006C0142E0C40ED11CCA14DB0420F1AC01B9
:100E70004A195B09DA011296159780F06282738233
:100E800051834083D9016D937C93E114F10471F097
:100E9000D7011396FC93EE93129776CF22968C0F80
:100EA0009D1FF90191838083F301EFCFF093F70148
:100EB000E093F60169CF4816590608F42C017D012C
:100EC000D3019ACFCB010E9492057C01009749F093
:100ED000AE01B8010E947407C8010E942E06870166
:100EE00053CF10E000E050CFFB01DC0102C00190C5
:100EF0000D9241505040D8F70895FB01DC0101905C
:100F00000D920020E1F70895F894FFCFF802000059
:100F1000F80180000000000018015F00A5006501D5
:100F2000D600B400C8000D0A00436F6E7461646F90
:100F30007220646F2053656D61666F726F3A200096
:100F4000436F6E7461646F7220646F2041747261CC
:060F5000736F3A2000005F
:107E0000112484B714BE81FFF0D085E080938100F7
:107E100082E08093C00088E18093C10086E0809377
:107E2000C20080E18093C4008EE0C9D0259A86E02C
:107E300020E33CEF91E0309385002093840096BBD3
:107E4000B09BFECF1D9AA8958150A9F7CC24DD24C4
:107E500088248394B5E0AB2EA1E19A2EF3E0BF2EE7
:107E6000A2D0813461F49FD0082FAFD0023811F036
:107E7000013811F484E001C083E08DD089C08234E0
:107E800011F484E103C0853419F485E0A6D080C0E4
:107E9000853579F488D0E82EFF2485D0082F10E0AE
:107EA000102F00270E291F29000F111F8ED06801E7
:107EB0006FC0863521F484E090D080E0DECF843638
:107EC00009F040C070D06FD0082F6DD080E0C81688
:107ED00080E7D80618F4F601B7BEE895C0E0D1E017
:107EE00062D089930C17E1F7F0E0CF16F0E7DF06D8
:107EF00018F0F601B7BEE89568D007B600FCFDCFD4
:107F0000A601A0E0B1E02C9130E011968C91119780
:107F100090E0982F8827822B932B1296FA010C0160
:107F200087BEE89511244E5F5F4FF1E0A038BF0790
:107F300051F7F601A7BEE89507B600FCFDCF97BE46
:107F4000E89526C08437B1F42ED02DD0F82E2BD052
:107F50003CD0F601EF2C8F010F5F1F4F84911BD097
:107F6000EA94F801C1F70894C11CD11CFA94CF0C13
:107F7000D11C0EC0853739F428D08EE10CD085E9AC
:107F80000AD08FE07ACF813511F488E018D01DD067
:107F900080E101D065CF982F8091C00085FFFCCF94
:107FA0009093C60008958091C00087FFFCCF809118
:107FB000C00084FD01C0A8958091C6000895E0E648
:107FC000F0E098E1908380830895EDDF803219F02E
:107FD00088E0F5DFFFCF84E1DECF1F93182FE3DFCA
:107FE0001150E9F7F2DF1F91089580E0E8DFEE27F6
:047FF000FF270994CA
:027FFE00040479
:00000001FF
